{
  "contractName": "Loan",
  "abi": [
    {
      "constant": true,
      "inputs": [],
      "name": "repaymentAmount",
      "outputs": [
        {
          "name": "",
          "type": "uint256"
        }
      ],
      "payable": false,
      "stateMutability": "view",
      "type": "function"
    },
    {
      "constant": true,
      "inputs": [
        {
          "name": "",
          "type": "uint256"
        }
      ],
      "name": "withdrawals",
      "outputs": [
        {
          "name": "purpose",
          "type": "string"
        },
        {
          "name": "value",
          "type": "uint256"
        },
        {
          "name": "recipient",
          "type": "address"
        },
        {
          "name": "complete",
          "type": "bool"
        },
        {
          "name": "approved",
          "type": "bool"
        }
      ],
      "payable": false,
      "stateMutability": "view",
      "type": "function"
    },
    {
      "constant": true,
      "inputs": [],
      "name": "description",
      "outputs": [
        {
          "name": "",
          "type": "string"
        }
      ],
      "payable": false,
      "stateMutability": "view",
      "type": "function"
    },
    {
      "constant": true,
      "inputs": [],
      "name": "borrower",
      "outputs": [
        {
          "name": "",
          "type": "address"
        }
      ],
      "payable": false,
      "stateMutability": "view",
      "type": "function"
    },
    {
      "constant": true,
      "inputs": [],
      "name": "loanAmount",
      "outputs": [
        {
          "name": "",
          "type": "uint256"
        }
      ],
      "payable": false,
      "stateMutability": "view",
      "type": "function"
    },
    {
      "constant": true,
      "inputs": [],
      "name": "lender",
      "outputs": [
        {
          "name": "",
          "type": "address"
        }
      ],
      "payable": false,
      "stateMutability": "view",
      "type": "function"
    },
    {
      "constant": true,
      "inputs": [],
      "name": "interest",
      "outputs": [
        {
          "name": "",
          "type": "uint256"
        }
      ],
      "payable": false,
      "stateMutability": "view",
      "type": "function"
    },
    {
      "constant": true,
      "inputs": [],
      "name": "repaid",
      "outputs": [
        {
          "name": "",
          "type": "bool"
        }
      ],
      "payable": false,
      "stateMutability": "view",
      "type": "function"
    },
    {
      "inputs": [
        {
          "name": "_description",
          "type": "string"
        },
        {
          "name": "_loanAmount",
          "type": "uint256"
        },
        {
          "name": "_interest",
          "type": "uint256"
        },
        {
          "name": "_borrower",
          "type": "address"
        }
      ],
      "payable": false,
      "stateMutability": "nonpayable",
      "type": "constructor"
    },
    {
      "constant": false,
      "inputs": [],
      "name": "lend",
      "outputs": [],
      "payable": true,
      "stateMutability": "payable",
      "type": "function"
    },
    {
      "constant": false,
      "inputs": [],
      "name": "repay",
      "outputs": [],
      "payable": true,
      "stateMutability": "payable",
      "type": "function"
    },
    {
      "constant": false,
      "inputs": [
        {
          "name": "purpose",
          "type": "string"
        },
        {
          "name": "value",
          "type": "uint256"
        },
        {
          "name": "recipient",
          "type": "address"
        }
      ],
      "name": "createWithdrawal",
      "outputs": [],
      "payable": false,
      "stateMutability": "nonpayable",
      "type": "function"
    },
    {
      "constant": false,
      "inputs": [
        {
          "name": "index",
          "type": "uint256"
        }
      ],
      "name": "approveWithdrawal",
      "outputs": [],
      "payable": false,
      "stateMutability": "nonpayable",
      "type": "function"
    },
    {
      "constant": false,
      "inputs": [
        {
          "name": "index",
          "type": "uint256"
        }
      ],
      "name": "makeWithdrawal",
      "outputs": [],
      "payable": false,
      "stateMutability": "nonpayable",
      "type": "function"
    },
    {
      "constant": true,
      "inputs": [],
      "name": "getSummary",
      "outputs": [
        {
          "name": "",
          "type": "string"
        },
        {
          "name": "",
          "type": "uint256"
        },
        {
          "name": "",
          "type": "uint256"
        },
        {
          "name": "",
          "type": "uint256"
        },
        {
          "name": "",
          "type": "uint256"
        },
        {
          "name": "",
          "type": "bool"
        },
        {
          "name": "",
          "type": "address"
        }
      ],
      "payable": false,
      "stateMutability": "view",
      "type": "function"
    },
    {
      "constant": true,
      "inputs": [],
      "name": "getWithdrawalsCount",
      "outputs": [
        {
          "name": "",
          "type": "uint256"
        }
      ],
      "payable": false,
      "stateMutability": "view",
      "type": "function"
    }
  ],
  "bytecode": "0x608060405234801561001057600080fd5b50604051610cbe380380610cbe833981016040908152815160208084015192840151606085015160018054600160a060020a031916600160a060020a038316179055600485905560058290559290940180519094929161007591600391870190610093565b50506006805460ff191690555050600554600454016007555061012e565b828054600181600116156101000203166002900490600052602060002090601f016020900481019282601f106100d457805160ff1916838001178555610101565b82800160010185558215610101579182015b828111156101015782518255916020019190600101906100e6565b5061010d929150610111565b5090565b61012b91905b8082111561010d5760008155600101610117565b90565b610b818061013d6000396000f3006080604052600436106100da5763ffffffff7c0100000000000000000000000000000000000000000000000000000000600035041663402d888381146100df5780634051ddac146100e957806344dc4b18146101b65780635cc07076146101dd57806363e52aee146102985780637284e416146102b05780637df1f1b91461033a57806397dffc611461036b5780639d585f7f146103735780639eceddea14610388578063bcead63e146103a0578063c392f766146103b5578063d0db3171146103ca578063e29e98aa14610434578063fbb27dce14610449575b600080fd5b6100e7610472565b005b3480156100f557600080fd5b506100fe6104cd565b60405180806020018881526020018781526020018681526020018581526020018415151515815260200183600160a060020a0316600160a060020a03168152602001828103825289818151815260200191508051906020019080838360005b8381101561017557818101518382015260200161015d565b50505050905090810190601f1680156101a25780820380516001836020036101000a031916815260200191505b509850505050505050505060405180910390f35b3480156101c257600080fd5b506101cb6105ad565b60408051918252519081900360200190f35b3480156101e957600080fd5b506101f56004356105b3565b604080516020808201879052600160a060020a038616928201929092528315156060820152821515608082015260a080825287519082015286519091829160c083019189019080838360005b83811015610259578181015183820152602001610241565b50505050905090810190601f1680156102865780820380516001836020036101000a031916815260200191505b50965050505050505060405180910390f35b3480156102a457600080fd5b506100e76004356106b3565b3480156102bc57600080fd5b506102c56107ac565b6040805160208082528351818301528351919283929083019185019080838360005b838110156102ff5781810151838201526020016102e7565b50505050905090810190601f16801561032c5780820380516001836020036101000a031916815260200191505b509250505060405180910390f35b34801561034657600080fd5b5061034f61083a565b60408051600160a060020a039092168252519081900360200190f35b6100e7610849565b34801561037f57600080fd5b506101cb61088e565b34801561039457600080fd5b506100e7600435610894565b3480156103ac57600080fd5b5061034f610908565b3480156103c157600080fd5b506101cb610917565b3480156103d657600080fd5b506040805160206004803580820135601f81018490048402850184019095528484526100e79436949293602493928401919081908401838280828437509497505084359550505050602090910135600160a060020a0316905061091d565b34801561044057600080fd5b506101cb610a7f565b34801561045557600080fd5b5061045e610a86565b604080519115158252519081900360200190f35b60055460045401341461048457600080fd5b600254604051600160a060020a03909116903480156108fc02916000818181858888f193505050501580156104bd573d6000803e3d6000fd5b506006805460ff19166001179055565b600454600554600080546006546001805460038054604080516020600261010097851615979097026000190190931695909504601f81018390048302860183019091528085526060999798899889988998899889983031979496939460ff90931693600160a060020a039091169289919083018282801561058f5780601f106105645761010080835404028352916020019161058f565b820191906000526020600020905b81548152906001019060200180831161057257829003601f168201915b50505050509650965096509650965096509650965090919293949596565b60075481565b60008054829081106105c157fe5b60009182526020918290206003919091020180546040805160026001841615610100026000190190931692909204601f81018590048502830185019091528082529193509183919083018282801561065a5780601f1061062f5761010080835404028352916020019161065a565b820191906000526020600020905b81548152906001019060200180831161063d57829003601f168201915b5050506001840154600290940154929392600160a060020a038116925060ff7401000000000000000000000000000000000000000082048116925075010000000000000000000000000000000000000000009091041685565b600154600090600160a060020a031633146106cd57600080fd5b60008054839081106106db57fe5b906000526020600020906003020190508060020160159054906101000a900460ff16151561070857600080fd5b600281015474010000000000000000000000000000000000000000900460ff161561073257600080fd5b60028101546001820154604051600160a060020a039092169181156108fc0291906000818181858888f19350505050158015610772573d6000803e3d6000fd5b50600201805474ff000000000000000000000000000000000000000019167401000000000000000000000000000000000000000017905550565b6003805460408051602060026001851615610100026000190190941693909304601f810184900484028201840190925281815292918301828280156108325780601f1061080757610100808354040283529160200191610832565b820191906000526020600020905b81548152906001019060200180831161081557829003601f168201915b505050505081565b600154600160a060020a031681565b600454341461085757600080fd5b600254600160a060020a03161561086d57600080fd5b6002805473ffffffffffffffffffffffffffffffffffffffff191633179055565b60045481565b600254600090600160a060020a031633146108ae57600080fd5b60008054839081106108bc57fe5b60009182526020909120600260039092020101805475ff000000000000000000000000000000000000000000191675010000000000000000000000000000000000000000001790555050565b600254600160a060020a031681565b60055481565b610925610a8f565b600154600160a060020a0316331461093c57600080fd5b506040805160a0810182528481526020808201859052600160a060020a03841692820192909252600060608201819052608082018190528054600181018083559180528251805193949293859360039093027f290decd9548b62a8d60345a988386fc84ba6bc95484008f6362f93160ef3e56301926109bf928492910190610abd565b50602082015160018201556040820151600290910180546060840151608090940151151575010000000000000000000000000000000000000000000275ff00000000000000000000000000000000000000000019941515740100000000000000000000000000000000000000000274ff000000000000000000000000000000000000000019600160a060020a0390951673ffffffffffffffffffffffffffffffffffffffff19909316929092179390931617929092161790555050505050565b6000545b90565b60065460ff1681565b6040805160a08101825260608082526000602083018190529282018390528101829052608081019190915290565b828054600181600116156101000203166002900490600052602060002090601f016020900481019282601f10610afe57805160ff1916838001178555610b2b565b82800160010185558215610b2b579182015b82811115610b2b578251825591602001919060010190610b10565b50610b37929150610b3b565b5090565b610a8391905b80821115610b375760008155600101610b415600a165627a7a72305820ed28f899187c6ab320868869aac9914c40955e568c93bae3ec2fa5107d51eb860029",
  "source": "pragma solidity ^0.4.17;\n\ncontract Loan {\n    struct Withdrawal {\n        string purpose;\n        uint value;\n        address recipient;\n        bool complete;\n        bool approved;\n    }\n\n    Withdrawal[] public withdrawals;\n    address public borrower;\n    address public lender;\n    string public description;\n    uint public loanAmount;\n    uint public interest;\n    bool public repaid;\n    uint public repaymentAmount;\n\n    modifier onlyLender() {\n        require(msg.sender == lender);\n        _;\n    }\n    \n    modifier onlyBorrower() {\n        require(msg.sender == borrower);\n        _;\n    }\n\n    constructor(string _description, uint _loanAmount, uint _interest, address _borrower) public {\n        borrower = _borrower;\n        loanAmount = _loanAmount;\n        interest = _interest;\n        description = _description;\n        repaid = false;\n        repaymentAmount = loanAmount + interest;\n    }\n\n    function lend() public payable {\n        require(msg.value == loanAmount);\n        require(lender == 0x0000000000000000000000000000000000000000);\n        lender = msg.sender;\n    }\n    \n    function repay() public payable {\n        require(msg.value == loanAmount + interest);\n        lender.transfer(msg.value);\n        repaid = true;\n    }\n\n    function createWithdrawal(string purpose, uint value, address recipient) public onlyBorrower {\n        Withdrawal memory newWithdrawal = Withdrawal({\n           purpose: purpose,\n           value: value,\n           recipient: recipient,\n           complete: false,\n           approved: false\n        });\n\n        withdrawals.push(newWithdrawal);\n    }\n\n    //RESTRICT THIS TO ONLY THE LENDER ABLE TO CALL\n    function approveWithdrawal(uint index) public onlyLender {\n        Withdrawal storage withdrawal = withdrawals[index];\n        withdrawal.approved = true;\n    }\n\n   \n    // RESTRICT THIS TO ONLY OWNER\n    function makeWithdrawal(uint index) public onlyBorrower {\n        Withdrawal storage withdrawal = withdrawals[index];\n\n        require(withdrawal.approved);\n        require(!withdrawal.complete);\n\n        withdrawal.recipient.transfer(withdrawal.value);\n        withdrawal.complete = true;\n    }\n\n    function getSummary() public view returns (\n      string, uint, uint, uint, uint, bool, address\n      ) {\n        return (\n          description,\n          address(this).balance,\n          loanAmount,\n          interest,\n          withdrawals.length,\n          repaid,\n          borrower\n        );\n    }\n\n    function getWithdrawalsCount() public view returns (uint) {\n        return withdrawals.length;\n    }\n}",
  "sourcePath": "/Users/jamesconnolly/consensys/etherloan-final/etherloan/contracts/Loan.sol",
  "compiler": {
    "name": "solc",
    "version": "0.4.24+commit.e67f0147.Emscripten.clang"
  },
  "schemaVersion": "2.0.1",
  "updatedAt": "2018-08-25T23:11:33.371Z"
}