{
  "contractName": "LoanFactory",
  "abi": [
    {
      "constant": true,
      "inputs": [],
      "name": "paused",
      "outputs": [
        {
          "name": "",
          "type": "bool"
        }
      ],
      "payable": false,
      "stateMutability": "view",
      "type": "function"
    },
    {
      "constant": true,
      "inputs": [
        {
          "name": "",
          "type": "uint256"
        }
      ],
      "name": "deployedLoans",
      "outputs": [
        {
          "name": "",
          "type": "address"
        }
      ],
      "payable": false,
      "stateMutability": "view",
      "type": "function"
    },
    {
      "constant": true,
      "inputs": [],
      "name": "owner",
      "outputs": [
        {
          "name": "",
          "type": "address"
        }
      ],
      "payable": false,
      "stateMutability": "view",
      "type": "function"
    },
    {
      "constant": false,
      "inputs": [
        {
          "name": "newOwner",
          "type": "address"
        }
      ],
      "name": "transferOwnership",
      "outputs": [],
      "payable": false,
      "stateMutability": "nonpayable",
      "type": "function"
    },
    {
      "anonymous": false,
      "inputs": [
        {
          "indexed": true,
          "name": "previousOwner",
          "type": "address"
        },
        {
          "indexed": true,
          "name": "newOwner",
          "type": "address"
        }
      ],
      "name": "OwnershipTransferred",
      "type": "event"
    },
    {
      "constant": false,
      "inputs": [],
      "name": "circuitbreaker",
      "outputs": [],
      "payable": false,
      "stateMutability": "nonpayable",
      "type": "function"
    },
    {
      "constant": false,
      "inputs": [
        {
          "name": "description",
          "type": "string"
        },
        {
          "name": "loanAmount",
          "type": "uint256"
        },
        {
          "name": "interest",
          "type": "uint256"
        }
      ],
      "name": "createLoan",
      "outputs": [],
      "payable": false,
      "stateMutability": "nonpayable",
      "type": "function"
    },
    {
      "constant": true,
      "inputs": [],
      "name": "getDeployedLoans",
      "outputs": [
        {
          "name": "",
          "type": "address[]"
        }
      ],
      "payable": false,
      "stateMutability": "view",
      "type": "function"
    }
  ],
  "bytecode": "0x608060405260008054600160a060020a03191633179055611171806100256000396000f3006080604052600436106100825763ffffffff7c0100000000000000000000000000000000000000000000000000000000600035041663293b21c281146100875780635c975abb1461009e5780637a855e8a146100c75780638da5cb5b146100fb578063bf7724cc14610110578063f2fde38b14610175578063f5afe0d314610196575b600080fd5b34801561009357600080fd5b5061009c6101f8565b005b3480156100aa57600080fd5b506100b361021e565b604080519115158252519081900360200190f35b3480156100d357600080fd5b506100df600435610227565b60408051600160a060020a039092168252519081900360200190f35b34801561010757600080fd5b506100df61024f565b34801561011c57600080fd5b5061012561025e565b60408051602080825283518183015283519192839290830191858101910280838360005b83811015610161578181015183820152602001610149565b505050509050019250505060405180910390f35b34801561018157600080fd5b5061009c600160a060020a03600435166102c0565b3480156101a257600080fd5b506040805160206004803580820135601f810184900484028501840190955284845261009c9436949293602493928401919081908401838280828437509497505084359550505060209092013591506103549050565b600054600160a060020a0316331461020f57600080fd5b6002805460ff19166001179055565b60025460ff1681565b600180548290811061023557fe5b600091825260209091200154600160a060020a0316905081565b600054600160a060020a031681565b606060018054806020026020016040519081016040528092919081815260200182805480156102b657602002820191906000526020600020905b8154600160a060020a03168152600190910190602001808311610298575b5050505050905090565b600054600160a060020a031633146102d757600080fd5b600160a060020a03811615156102ec57600080fd5b60008054604051600160a060020a03808516939216917f8be0079c531659141344cd1fd0a4f28419497f9722a3daafe3b4186f6b6457e091a36000805473ffffffffffffffffffffffffffffffffffffffff1916600160a060020a0392909216919091179055565b60025460009060ff161561036757600080fd5b8383833361037361047b565b602080820185905260408201849052600160a060020a038316606083015260808083528651908301528551829160a08301919088019080838360005b838110156103c75781810151838201526020016103af565b50505050905090810190601f1680156103f45780820380516001836020036101000a031916815260200191505b5095505050505050604051809103906000f080158015610418573d6000803e3d6000fd5b506001805480820182556000919091527fb10e2d527612073b26eecdfd717e6a320cf44b4afac2b0732d9fcbe2b7fa0cf601805473ffffffffffffffffffffffffffffffffffffffff1916600160a060020a039290921691909117905550505050565b604051610cba8061048c833901905600608060405234801561001057600080fd5b50604051610cba380380610cba833981016040908152815160208084015192840151606085015160018054600160a060020a031916600160a060020a038316179055600485905560058290559290940180519094929161007591600391870190610093565b50506006805460ff191690555050600554600454016007555061012e565b828054600181600116156101000203166002900490600052602060002090601f016020900481019282601f106100d457805160ff1916838001178555610101565b82800160010185558215610101579182015b828111156101015782518255916020019190600101906100e6565b5061010d929150610111565b5090565b61012b91905b8082111561010d5760008155600101610117565b90565b610b7d8061013d6000396000f3006080604052600436106100da5763ffffffff7c0100000000000000000000000000000000000000000000000000000000600035041663402d888381146100df5780634051ddac146100e957806344dc4b18146101b65780635cc07076146101dd57806363e52aee146102985780637284e416146102b05780637df1f1b91461033a57806397dffc611461036b5780639d585f7f146103735780639eceddea14610388578063bcead63e146103a0578063c392f766146103b5578063d0db3171146103ca578063e29e98aa14610434578063fbb27dce14610449575b600080fd5b6100e7610472565b005b3480156100f557600080fd5b506100fe6104c9565b60405180806020018881526020018781526020018681526020018581526020018415151515815260200183600160a060020a0316600160a060020a03168152602001828103825289818151815260200191508051906020019080838360005b8381101561017557818101518382015260200161015d565b50505050905090810190601f1680156101a25780820380516001836020036101000a031916815260200191505b509850505050505050505060405180910390f35b3480156101c257600080fd5b506101cb6105a9565b60408051918252519081900360200190f35b3480156101e957600080fd5b506101f56004356105af565b604080516020808201879052600160a060020a038616928201929092528315156060820152821515608082015260a080825287519082015286519091829160c083019189019080838360005b83811015610259578181015183820152602001610241565b50505050905090810190601f1680156102865780820380516001836020036101000a031916815260200191505b50965050505050505060405180910390f35b3480156102a457600080fd5b506100e76004356106af565b3480156102bc57600080fd5b506102c56107a8565b6040805160208082528351818301528351919283929083019185019080838360005b838110156102ff5781810151838201526020016102e7565b50505050905090810190601f16801561032c5780820380516001836020036101000a031916815260200191505b509250505060405180910390f35b34801561034657600080fd5b5061034f610836565b60408051600160a060020a039092168252519081900360200190f35b6100e7610845565b34801561037f57600080fd5b506101cb61088a565b34801561039457600080fd5b506100e7600435610890565b3480156103ac57600080fd5b5061034f610904565b3480156103c157600080fd5b506101cb610913565b3480156103d657600080fd5b506040805160206004803580820135601f81018490048402850184019095528484526100e79436949293602493928401919081908401838280828437509497505084359550505050602090910135600160a060020a03169050610919565b34801561044057600080fd5b506101cb610a7b565b34801561045557600080fd5b5061045e610a82565b604080519115158252519081900360200190f35b600754341461048057600080fd5b600254604051600160a060020a03909116903480156108fc02916000818181858888f193505050501580156104b9573d6000803e3d6000fd5b506006805460ff19166001179055565b600454600554600080546006546001805460038054604080516020600261010097851615979097026000190190931695909504601f81018390048302860183019091528085526060999798899889988998899889983031979496939460ff90931693600160a060020a039091169289919083018282801561058b5780601f106105605761010080835404028352916020019161058b565b820191906000526020600020905b81548152906001019060200180831161056e57829003601f168201915b50505050509650965096509650965096509650965090919293949596565b60075481565b60008054829081106105bd57fe5b60009182526020918290206003919091020180546040805160026001841615610100026000190190931692909204601f8101859004850283018501909152808252919350918391908301828280156106565780601f1061062b57610100808354040283529160200191610656565b820191906000526020600020905b81548152906001019060200180831161063957829003601f168201915b5050506001840154600290940154929392600160a060020a038116925060ff7401000000000000000000000000000000000000000082048116925075010000000000000000000000000000000000000000009091041685565b600154600090600160a060020a031633146106c957600080fd5b60008054839081106106d757fe5b906000526020600020906003020190508060020160159054906101000a900460ff16151561070457600080fd5b600281015474010000000000000000000000000000000000000000900460ff161561072e57600080fd5b60028101546001820154604051600160a060020a039092169181156108fc0291906000818181858888f1935050505015801561076e573d6000803e3d6000fd5b50600201805474ff000000000000000000000000000000000000000019167401000000000000000000000000000000000000000017905550565b6003805460408051602060026001851615610100026000190190941693909304601f8101849004840282018401909252818152929183018282801561082e5780601f106108035761010080835404028352916020019161082e565b820191906000526020600020905b81548152906001019060200180831161081157829003601f168201915b505050505081565b600154600160a060020a031681565b600254600160a060020a03161561085b57600080fd5b600454341461086957600080fd5b6002805473ffffffffffffffffffffffffffffffffffffffff191633179055565b60045481565b600254600090600160a060020a031633146108aa57600080fd5b60008054839081106108b857fe5b60009182526020909120600260039092020101805475ff000000000000000000000000000000000000000000191675010000000000000000000000000000000000000000001790555050565b600254600160a060020a031681565b60055481565b610921610a8b565b600154600160a060020a0316331461093857600080fd5b506040805160a0810182528481526020808201859052600160a060020a03841692820192909252600060608201819052608082018190528054600181018083559180528251805193949293859360039093027f290decd9548b62a8d60345a988386fc84ba6bc95484008f6362f93160ef3e56301926109bb928492910190610ab9565b50602082015160018201556040820151600290910180546060840151608090940151151575010000000000000000000000000000000000000000000275ff00000000000000000000000000000000000000000019941515740100000000000000000000000000000000000000000274ff000000000000000000000000000000000000000019600160a060020a0390951673ffffffffffffffffffffffffffffffffffffffff19909316929092179390931617929092161790555050505050565b6000545b90565b60065460ff1681565b6040805160a08101825260608082526000602083018190529282018390528101829052608081019190915290565b828054600181600116156101000203166002900490600052602060002090601f016020900481019282601f10610afa57805160ff1916838001178555610b27565b82800160010185558215610b27579182015b82811115610b27578251825591602001919060010190610b0c565b50610b33929150610b37565b5090565b610a7f91905b80821115610b335760008155600101610b3d5600a165627a7a72305820fc902fe70c95b610dada5c689954fb26dc3945b111f25d5764e18aa0bd2773490029a165627a7a72305820199a61f3bb12263b212f9ad4cb4436fcf425377ef989f9deec17c063aeade8000029",
  "source": "pragma solidity ^0.4.17;\r\n\r\n// Open zeppelin Ownable contract is used via EthPM to ensure killswitch is only accesible to the contract deployer\r\nimport '../installed_contracts/zeppelin/contracts/ownership/Ownable.sol';\r\n\r\n/** @title Loan Factory. */\r\ncontract LoanFactory is Ownable {\r\n    // LoanFactory keeps track of an array of loans it has deployed and will not create new loans if paused by the circuit breaker\r\n    address[] public deployedLoans;\r\n    bool public paused;\r\n    \r\n    // Allow the owner to pause creation of new contracts\r\n    function circuitbreaker() public onlyOwner {\r\n        paused = true;\r\n    }\r\n\r\n    // Factory creates new loans, deploys them to network and stores address in an array\r\n    function createLoan(string description, uint loanAmount, uint interest) public {\r\n        require(!paused);\r\n        address newLoan = new Loan(description, loanAmount, interest, msg.sender);\r\n        deployedLoans.push(newLoan);\r\n    }\r\n\r\n    // Returns a full array of all deployed loans (default behaviour of Solidity is to require user to get array elements by index)\r\n    function getDeployedLoans() public view returns (address[]) {\r\n        return deployedLoans;\r\n    }\r\n}\r\n\r\ncontract Loan {\r\n    // Struct used to store requests to withdraw funds from a loan\r\n    struct Withdrawal {\r\n        string purpose;\r\n        uint value;\r\n        address recipient;\r\n        bool complete;\r\n        bool approved;\r\n    }\r\n\r\n    // Initial variable instantiation\r\n    Withdrawal[] public withdrawals;\r\n    address public borrower;\r\n    address public lender;\r\n    string public description;\r\n    uint public loanAmount;\r\n    uint public interest;\r\n    bool public repaid;\r\n    uint public repaymentAmount;\r\n\r\n    // Function modifier applied to functions that should only be called by the person who lent money to a loan\r\n    modifier onlyLender() {\r\n        require(msg.sender == lender);\r\n        _;\r\n    }\r\n    \r\n    // Function modifier applied to functions that should only be called by the person who borrowed money\r\n    modifier onlyBorrower() {\r\n        require(msg.sender == borrower);\r\n        _;\r\n    }\r\n\r\n    // Basic constructor function to create a new loan\r\n    constructor(string _description, uint _loanAmount, uint _interest, address _borrower) public {\r\n        borrower = _borrower;\r\n        loanAmount = _loanAmount;\r\n        interest = _interest;\r\n        description = _description;\r\n        repaid = false;\r\n        repaymentAmount = loanAmount + interest;\r\n    }\r\n\r\n    // Lend funds to a given loan, sets the caller as the lender, giving them all onlyLender privileges for this loan\r\n    function lend() public payable {\r\n        // Ensure nobdy already lent the money and that the lender is lending the correct amount\r\n        require(lender == 0x0000000000000000000000000000000000000000);\r\n        require(msg.value == loanAmount);\r\n        \r\n        lender = msg.sender;\r\n    }\r\n    \r\n    // Allow borrower to repay the loan\r\n    function repay() public payable {\r\n        require(msg.value == repaymentAmount);\r\n        lender.transfer(msg.value);\r\n        repaid = true;\r\n    }\r\n\r\n    // Allow borrower to request to withdraw funds\r\n    function createWithdrawal(string purpose, uint value, address recipient) public onlyBorrower {\r\n        Withdrawal memory newWithdrawal = Withdrawal({\r\n           purpose: purpose,\r\n           value: value,\r\n           recipient: recipient,\r\n           complete: false,\r\n           approved: false\r\n        });\r\n\r\n        withdrawals.push(newWithdrawal);\r\n    }\r\n\r\n    // Approve a request to withdraw funds (only lender can do this)\r\n    function approveWithdrawal(uint index) public onlyLender {\r\n        Withdrawal storage withdrawal = withdrawals[index];\r\n        withdrawal.approved = true;\r\n    }\r\n\r\n   \r\n    // Withdraw funds from the loan after approved (only borrower can do this) \r\n    function makeWithdrawal(uint index) public onlyBorrower {\r\n        Withdrawal storage withdrawal = withdrawals[index];\r\n\r\n        require(withdrawal.approved);\r\n        require(!withdrawal.complete);\r\n\r\n        withdrawal.recipient.transfer(withdrawal.value);\r\n        withdrawal.complete = true;\r\n    }\r\n\r\n    // helper function to return some variables associated with the loan\r\n    function getSummary() public view returns (\r\n      string, uint, uint, uint, uint, bool, address\r\n      ) {\r\n        return (\r\n          description,\r\n          address(this).balance,\r\n          loanAmount,\r\n          interest,\r\n          withdrawals.length,\r\n          repaid,\r\n          borrower\r\n        );\r\n    }\r\n\r\n    // helper function to return the number of withdrawals associated with a loan, useful for looping through them on the front end\r\n    function getWithdrawalsCount() public view returns (uint) {\r\n        return withdrawals.length;\r\n    }\r\n}",
  "sourcePath": "/Users/jamesconnolly/consensys/etherloan-final/etherloan/contracts/LoanFactory.sol",
  "compiler": {
    "name": "solc",
    "version": "0.4.24+commit.e67f0147.Emscripten.clang"
  },
  "schemaVersion": "2.0.1",
  "updatedAt": "2018-08-25T23:11:20.239Z"
}