{
  "contractName": "LoanFactory",
  "abi": [
    {
      "constant": true,
      "inputs": [
        {
          "name": "",
          "type": "uint256"
        }
      ],
      "name": "deployedLoans",
      "outputs": [
        {
          "name": "",
          "type": "address"
        }
      ],
      "payable": false,
      "stateMutability": "view",
      "type": "function"
    },
    {
      "constant": false,
      "inputs": [
        {
          "name": "description",
          "type": "string"
        },
        {
          "name": "loanAmount",
          "type": "uint256"
        },
        {
          "name": "interest",
          "type": "uint256"
        }
      ],
      "name": "createLoan",
      "outputs": [],
      "payable": false,
      "stateMutability": "nonpayable",
      "type": "function"
    },
    {
      "constant": true,
      "inputs": [],
      "name": "getDeployedLoans",
      "outputs": [
        {
          "name": "",
          "type": "address[]"
        }
      ],
      "payable": false,
      "stateMutability": "view",
      "type": "function"
    }
  ],
  "bytecode": "0x608060405234801561001057600080fd5b50611031806100206000396000f3006080604052600436106100565763ffffffff7c01000000000000000000000000000000000000000000000000000000006000350416637a855e8a811461005b578063bf7724cc1461009c578063f5afe0d314610101575b600080fd5b34801561006757600080fd5b50610073600435610165565b6040805173ffffffffffffffffffffffffffffffffffffffff9092168252519081900360200190f35b3480156100a857600080fd5b506100b161019a565b60408051602080825283518183015283519192839290830191858101910280838360005b838110156100ed5781810151838201526020016100d5565b505050509050019250505060405180910390f35b34801561010d57600080fd5b506040805160206004803580820135601f81018490048402850184019095528484526101639436949293602493928401919081908401838280828437509497505084359550505060209092013591506102099050565b005b600080548290811061017357fe5b60009182526020909120015473ffffffffffffffffffffffffffffffffffffffff16905081565b606060008054806020026020016040519081016040528092919081815260200182805480156101ff57602002820191906000526020600020905b815473ffffffffffffffffffffffffffffffffffffffff1681526001909101906020018083116101d4575b5050505050905090565b600083838333610217610337565b60208082018590526040820184905273ffffffffffffffffffffffffffffffffffffffff8316606083015260808083528651908301528551829160a08301919088019080838360005b83811015610278578181015183820152602001610260565b50505050905090810190601f1680156102a55780820380516001836020036101000a031916815260200191505b5095505050505050604051809103906000f0801580156102c9573d6000803e3d6000fd5b50600080546001810182559080527f290decd9548b62a8d60345a988386fc84ba6bc95484008f6362f93160ef3e56301805473ffffffffffffffffffffffffffffffffffffffff191673ffffffffffffffffffffffffffffffffffffffff9290921691909117905550505050565b604051610cbe80610348833901905600608060405234801561001057600080fd5b50604051610cbe380380610cbe833981016040908152815160208084015192840151606085015160018054600160a060020a031916600160a060020a038316179055600485905560058290559290940180519094929161007591600391870190610093565b50506006805460ff191690555050600554600454016007555061012e565b828054600181600116156101000203166002900490600052602060002090601f016020900481019282601f106100d457805160ff1916838001178555610101565b82800160010185558215610101579182015b828111156101015782518255916020019190600101906100e6565b5061010d929150610111565b5090565b61012b91905b8082111561010d5760008155600101610117565b90565b610b818061013d6000396000f3006080604052600436106100da5763ffffffff7c0100000000000000000000000000000000000000000000000000000000600035041663402d888381146100df5780634051ddac146100e957806344dc4b18146101b65780635cc07076146101dd57806363e52aee146102985780637284e416146102b05780637df1f1b91461033a57806397dffc611461036b5780639d585f7f146103735780639eceddea14610388578063bcead63e146103a0578063c392f766146103b5578063d0db3171146103ca578063e29e98aa14610434578063fbb27dce14610449575b600080fd5b6100e7610472565b005b3480156100f557600080fd5b506100fe6104cd565b60405180806020018881526020018781526020018681526020018581526020018415151515815260200183600160a060020a0316600160a060020a03168152602001828103825289818151815260200191508051906020019080838360005b8381101561017557818101518382015260200161015d565b50505050905090810190601f1680156101a25780820380516001836020036101000a031916815260200191505b509850505050505050505060405180910390f35b3480156101c257600080fd5b506101cb6105ad565b60408051918252519081900360200190f35b3480156101e957600080fd5b506101f56004356105b3565b604080516020808201879052600160a060020a038616928201929092528315156060820152821515608082015260a080825287519082015286519091829160c083019189019080838360005b83811015610259578181015183820152602001610241565b50505050905090810190601f1680156102865780820380516001836020036101000a031916815260200191505b50965050505050505060405180910390f35b3480156102a457600080fd5b506100e76004356106b3565b3480156102bc57600080fd5b506102c56107ac565b6040805160208082528351818301528351919283929083019185019080838360005b838110156102ff5781810151838201526020016102e7565b50505050905090810190601f16801561032c5780820380516001836020036101000a031916815260200191505b509250505060405180910390f35b34801561034657600080fd5b5061034f61083a565b60408051600160a060020a039092168252519081900360200190f35b6100e7610849565b34801561037f57600080fd5b506101cb61088e565b34801561039457600080fd5b506100e7600435610894565b3480156103ac57600080fd5b5061034f610908565b3480156103c157600080fd5b506101cb610917565b3480156103d657600080fd5b506040805160206004803580820135601f81018490048402850184019095528484526100e79436949293602493928401919081908401838280828437509497505084359550505050602090910135600160a060020a0316905061091d565b34801561044057600080fd5b506101cb610a7f565b34801561045557600080fd5b5061045e610a86565b604080519115158252519081900360200190f35b60055460045401341461048457600080fd5b600254604051600160a060020a03909116903480156108fc02916000818181858888f193505050501580156104bd573d6000803e3d6000fd5b506006805460ff19166001179055565b600454600554600080546006546001805460038054604080516020600261010097851615979097026000190190931695909504601f81018390048302860183019091528085526060999798899889988998899889983031979496939460ff90931693600160a060020a039091169289919083018282801561058f5780601f106105645761010080835404028352916020019161058f565b820191906000526020600020905b81548152906001019060200180831161057257829003601f168201915b50505050509650965096509650965096509650965090919293949596565b60075481565b60008054829081106105c157fe5b60009182526020918290206003919091020180546040805160026001841615610100026000190190931692909204601f81018590048502830185019091528082529193509183919083018282801561065a5780601f1061062f5761010080835404028352916020019161065a565b820191906000526020600020905b81548152906001019060200180831161063d57829003601f168201915b5050506001840154600290940154929392600160a060020a038116925060ff7401000000000000000000000000000000000000000082048116925075010000000000000000000000000000000000000000009091041685565b600154600090600160a060020a031633146106cd57600080fd5b60008054839081106106db57fe5b906000526020600020906003020190508060020160159054906101000a900460ff16151561070857600080fd5b600281015474010000000000000000000000000000000000000000900460ff161561073257600080fd5b60028101546001820154604051600160a060020a039092169181156108fc0291906000818181858888f19350505050158015610772573d6000803e3d6000fd5b50600201805474ff000000000000000000000000000000000000000019167401000000000000000000000000000000000000000017905550565b6003805460408051602060026001851615610100026000190190941693909304601f810184900484028201840190925281815292918301828280156108325780601f1061080757610100808354040283529160200191610832565b820191906000526020600020905b81548152906001019060200180831161081557829003601f168201915b505050505081565b600154600160a060020a031681565b600454341461085757600080fd5b600254600160a060020a03161561086d57600080fd5b6002805473ffffffffffffffffffffffffffffffffffffffff191633179055565b60045481565b600254600090600160a060020a031633146108ae57600080fd5b60008054839081106108bc57fe5b60009182526020909120600260039092020101805475ff000000000000000000000000000000000000000000191675010000000000000000000000000000000000000000001790555050565b600254600160a060020a031681565b60055481565b610925610a8f565b600154600160a060020a0316331461093c57600080fd5b506040805160a0810182528481526020808201859052600160a060020a03841692820192909252600060608201819052608082018190528054600181018083559180528251805193949293859360039093027f290decd9548b62a8d60345a988386fc84ba6bc95484008f6362f93160ef3e56301926109bf928492910190610abd565b50602082015160018201556040820151600290910180546060840151608090940151151575010000000000000000000000000000000000000000000275ff00000000000000000000000000000000000000000019941515740100000000000000000000000000000000000000000274ff000000000000000000000000000000000000000019600160a060020a0390951673ffffffffffffffffffffffffffffffffffffffff19909316929092179390931617929092161790555050505050565b6000545b90565b60065460ff1681565b6040805160a08101825260608082526000602083018190529282018390528101829052608081019190915290565b828054600181600116156101000203166002900490600052602060002090601f016020900481019282601f10610afe57805160ff1916838001178555610b2b565b82800160010185558215610b2b579182015b82811115610b2b578251825591602001919060010190610b10565b50610b37929150610b3b565b5090565b610a8391905b80821115610b375760008155600101610b415600a165627a7a723058202fa62b4709a535c6b347ae3b2b0572b8d1b30b8f04d63f55daefd29a4a1f542c0029a165627a7a72305820be7b372689bbbc7f95f1b5946eb9858ee3d8875c0fc4e4a414154196afee63e20029",
  "source": "pragma solidity ^0.4.17;\r\n\r\n// IMPORT ONLY OWNER\r\n\r\ncontract LoanFactory {\r\n    address[] public deployedLoans;\r\n\r\n    function createLoan(string description, uint loanAmount, uint interest) public {\r\n        address newLoan = new Loan(description, loanAmount, interest, msg.sender);\r\n        deployedLoans.push(newLoan);\r\n    }\r\n\r\n    function getDeployedLoans() public view returns (address[]) {\r\n        return deployedLoans;\r\n    }\r\n}\r\n\r\ncontract Loan {\r\n    struct Withdrawal {\r\n        string purpose;\r\n        uint value;\r\n        address recipient;\r\n        bool complete;\r\n        bool approved;\r\n    }\r\n\r\n    Withdrawal[] public withdrawals;\r\n    address public borrower;\r\n    address public lender;\r\n    string public description;\r\n    uint public loanAmount;\r\n    uint public interest;\r\n    bool public repaid;\r\n    uint public repaymentAmount;\r\n\r\n    modifier onlyLender() {\r\n        require(msg.sender == lender);\r\n        _;\r\n    }\r\n    \r\n    modifier onlyBorrower() {\r\n        require(msg.sender == borrower);\r\n        _;\r\n    }\r\n\r\n    constructor(string _description, uint _loanAmount, uint _interest, address _borrower) public {\r\n        borrower = _borrower;\r\n        loanAmount = _loanAmount;\r\n        interest = _interest;\r\n        description = _description;\r\n        repaid = false;\r\n        repaymentAmount = loanAmount + interest;\r\n    }\r\n\r\n    function lend() public payable {\r\n        require(msg.value == loanAmount);\r\n        require(lender == 0x0000000000000000000000000000000000000000);\r\n        lender = msg.sender;\r\n    }\r\n    \r\n    function repay() public payable {\r\n        require(msg.value == loanAmount + interest);\r\n        lender.transfer(msg.value);\r\n        repaid = true;\r\n    }\r\n\r\n    function createWithdrawal(string purpose, uint value, address recipient) public onlyBorrower {\r\n        Withdrawal memory newWithdrawal = Withdrawal({\r\n           purpose: purpose,\r\n           value: value,\r\n           recipient: recipient,\r\n           complete: false,\r\n           approved: false\r\n        });\r\n\r\n        withdrawals.push(newWithdrawal);\r\n    }\r\n\r\n    //RESTRICT THIS TO ONLY THE LENDER ABLE TO CALL\r\n    function approveWithdrawal(uint index) public onlyLender {\r\n        Withdrawal storage withdrawal = withdrawals[index];\r\n        withdrawal.approved = true;\r\n    }\r\n\r\n   \r\n    // RESTRICT THIS TO ONLY OWNER\r\n    function makeWithdrawal(uint index) public onlyBorrower {\r\n        Withdrawal storage withdrawal = withdrawals[index];\r\n\r\n        require(withdrawal.approved);\r\n        require(!withdrawal.complete);\r\n\r\n        withdrawal.recipient.transfer(withdrawal.value);\r\n        withdrawal.complete = true;\r\n    }\r\n\r\n    function getSummary() public view returns (\r\n      string, uint, uint, uint, uint, bool, address\r\n      ) {\r\n        return (\r\n          description,\r\n          address(this).balance,\r\n          loanAmount,\r\n          interest,\r\n          withdrawals.length,\r\n          repaid,\r\n          borrower\r\n        );\r\n    }\r\n\r\n    function getWithdrawalsCount() public view returns (uint) {\r\n        return withdrawals.length;\r\n    }\r\n}",
  "sourcePath": "/home/jamesconnolly93/consensys/etherloan/etherloan/contracts/LoanFactory.sol",
  "compiler": {
    "name": "solc",
    "version": "0.4.24+commit.e67f0147.Emscripten.clang"
  },
  "schemaVersion": "2.0.1",
  "updatedAt": "2018-08-24T04:15:58.679Z"
}